{
  "contractName": "ConsentManager",
  "abi": [
    {
      "anonymous": false,
      "inputs": [
        {
          "indexed": false,
          "name": "consent",
          "type": "address"
        },
        {
          "indexed": false,
          "name": "dataUser",
          "type": "address"
        },
        {
          "indexed": false,
          "name": "dataSubject",
          "type": "address"
        }
      ],
      "name": "SignaturesRequired",
      "type": "event",
      "signature": "0x01a26cecf0f7b731da0c2f895e2bcea5bc810cc2f37cce9cfb9a28eed4dd98ac"
    },
    {
      "anonymous": false,
      "inputs": [
        {
          "indexed": false,
          "name": "consent",
          "type": "address"
        },
        {
          "indexed": false,
          "name": "withConsent",
          "type": "address"
        }
      ],
      "name": "ConsentUpdated",
      "type": "event",
      "signature": "0xe7d7823be9d101e42d699d07774836d011b7d19187174894fc6e7004bf228517"
    },
    {
      "constant": false,
      "inputs": [
        {
          "name": "dataUser",
          "type": "address"
        },
        {
          "name": "dataSubject",
          "type": "address"
        },
        {
          "name": "swarmLocation",
          "type": "bytes32"
        }
      ],
      "name": "createConsent",
      "outputs": [
        {
          "name": "",
          "type": "address"
        }
      ],
      "payable": false,
      "stateMutability": "nonpayable",
      "type": "function",
      "signature": "0x24125957"
    },
    {
      "constant": false,
      "inputs": [
        {
          "name": "consent",
          "type": "address"
        },
        {
          "name": "swarmLocation",
          "type": "bytes32"
        }
      ],
      "name": "updateConsent",
      "outputs": [
        {
          "name": "",
          "type": "address"
        }
      ],
      "payable": false,
      "stateMutability": "nonpayable",
      "type": "function",
      "signature": "0xb5ed7c8c"
    },
    {
      "constant": true,
      "inputs": [],
      "name": "getUserConsents",
      "outputs": [
        {
          "name": "",
          "type": "address[]"
        }
      ],
      "payable": false,
      "stateMutability": "view",
      "type": "function",
      "signature": "0x84d69745"
    },
    {
      "constant": true,
      "inputs": [],
      "name": "getSubjectConsents",
      "outputs": [
        {
          "name": "",
          "type": "address[]"
        }
      ],
      "payable": false,
      "stateMutability": "view",
      "type": "function",
      "signature": "0x41764cc4"
    },
    {
      "constant": true,
      "inputs": [
        {
          "name": "swarmHash",
          "type": "bytes32"
        }
      ],
      "name": "getConsentsFor",
      "outputs": [
        {
          "name": "",
          "type": "address[]"
        }
      ],
      "payable": false,
      "stateMutability": "view",
      "type": "function",
      "signature": "0xe5f41498"
    }
  ],
  "bytecode": "0x608060405234801561001057600080fd5b50611437806100206000396000f3fe6080604052600436106100535763ffffffff60e060020a60003504166324125957811461005857806341764cc41461008e57806384d69745146100b0578063b5ed7c8c146100c5578063e5f41498146100e5575b600080fd5b34801561006457600080fd5b50610078610073366004610920565b610105565b6040516100859190610a7f565b60405180910390f35b34801561009a57600080fd5b506100a36101d3565b6040516100859190610a6e565b3480156100bc57600080fd5b506100a361023e565b3480156100d157600080fd5b506100786100e036600461098b565b6102a5565b3480156100f157600080fd5b506100a361010036600461096d565b6106a8565b6000808484846101136108ba565b61011f93929190610a46565b604051809103906000f08015801561013b573d6000803e3d6000fd5b50905061014781610714565b50600083815260026020908152604080832080546001810182559084529190922001805473ffffffffffffffffffffffffffffffffffffffff1916600160a060020a038416179055517f01a26cecf0f7b731da0c2f895e2bcea5bc810cc2f37cce9cfb9a28eed4dd98ac906101c190839088908890610a8d565b60405180910390a190505b9392505050565b3360009081526001602090815260409182902080548351818402810184019094528084526060939283018282801561023457602002820191906000526020600020905b8154600160a060020a03168152600190910190602001808311610216575b5050505050905090565b336000908152602081815260409182902080548351818402810184019094528084526060939283018282801561023457602002820191906000526020600020908154600160a060020a03168152600190910190602001808311610216575050505050905090565b600033600160a060020a0384161415806102c8575033600160a060020a03841614155b156102d5575060006106a2565b600083600160a060020a031663ff30c1856040518163ffffffff1660e060020a02815260040160206040518083038186803b15801561031357600080fd5b505afa158015610327573d6000803e3d6000fd5b505050506040513d601f19601f8201168201806040525061034b91908101906108fa565b84600160a060020a031663a35a45936040518163ffffffff1660e060020a02815260040160206040518083038186803b15801561038757600080fd5b505afa15801561039b573d6000803e3d6000fd5b505050506040513d601f19601f820116820180604052506103bf91908101906108fa565b846103c86108ba565b6103d493929190610a46565b604051809103906000f0801580156103f0573d6000803e3d6000fd5b50905083600160a060020a03168460405160200180807f757064617465436f6e73656e7428436f6e73656e74290000000000000000000081525060160182600160a060020a0316600160a060020a03166c010000000000000000000000000281526014019150506040516020818303038152906040526040518082805190602001908083835b602083106104955780518252601f199092019160209182019101610476565b6001836020036101000a0380198251168184511680821785525050505050509050019150506000604051808303816000865af19150503d80600081146104f7576040519150601f19603f3d011682016040523d82523d6000602084013e6104fc565b606091505b505050600083815260026020908152604080832080546001810182559084529190922001805473ffffffffffffffffffffffffffffffffffffffff1916600160a060020a038716179055517fe7d7823be9d101e42d699d07774836d011b7d19187174894fc6e7004bf228517906105769086908490610ab5565b60405180910390a17f01a26cecf0f7b731da0c2f895e2bcea5bc810cc2f37cce9cfb9a28eed4dd98ac8185600160a060020a031663ff30c1856040518163ffffffff1660e060020a02815260040160206040518083038186803b1580156105dc57600080fd5b505afa1580156105f0573d6000803e3d6000fd5b505050506040513d601f19601f8201168201806040525061061491908101906108fa565b86600160a060020a031663a35a45936040518163ffffffff1660e060020a02815260040160206040518083038186803b15801561065057600080fd5b505afa158015610664573d6000803e3d6000fd5b505050506040513d601f19601f8201168201806040525061068891908101906108fa565b60405161069793929190610a8d565b60405180910390a190505b92915050565b60008181526002602090815260409182902080548351818402810184019094528084526060939283018282801561070857602002820191906000526020600020905b8154600160a060020a031681526001909101906020018083116106ea575b50505050509050919050565b600080600083600160a060020a031663ff30c1856040518163ffffffff1660e060020a02815260040160206040518083038186803b15801561075557600080fd5b505afa158015610769573d6000803e3d6000fd5b505050506040513d601f19601f8201168201806040525061078d91908101906108fa565b600160a060020a0390811682526020808301939093526040918201600090812080546001808201835591835285832001805473ffffffffffffffffffffffffffffffffffffffff1916938816938417905583517fa35a459300000000000000000000000000000000000000000000000000000000815293519094919363a35a4593926004808301939192829003018186803b15801561082b57600080fd5b505afa15801561083f573d6000803e3d6000fd5b505050506040513d601f19601f8201168201806040525061086391908101906108fa565b600160a060020a039081168252602080830193909352604090910160009081208054600181018255908252929020909101805473ffffffffffffffffffffffffffffffffffffffff19169184169190911790555090565b6040516108f380610b0b83390190565b60006101cc8235610ada565b60006101cc8251610ada565b60006101cc8235610ae5565b60006101cc8235610af4565b60006020828403121561090c57600080fd5b600061091884846108d6565b949350505050565b60008060006060848603121561093557600080fd5b600061094186866108ca565b9350506020610952868287016108ca565b9250506040610963868287016108e2565b9150509250925092565b60006020828403121561097f57600080fd5b600061091884846108e2565b6000806040838503121561099e57600080fd5b60006109aa85856108ee565b92505060206109bb858286016108e2565b9150509250929050565b6109ce81610aff565b82525050565b6109ce81610ada565b60006109e882610ad6565b8084526020840193506109fa83610ad0565b60005b82811015610a2a57610a10868351610a3d565b610a1982610ad0565b6020969096019591506001016109fd565b5093949350505050565b6109ce81610ae5565b6109ce81610af4565b60608101610a5482866109d4565b610a6160208301856109d4565b6109186040830184610a34565b602080825281016101cc81846109dd565b602081016106a28284610a3d565b60608101610a9b8286610a3d565b610aa860208301856109c5565b61091860408301846109c5565b60408101610ac38285610a3d565b6101cc6020830184610a3d565b60200190565b5190565b60006106a282610ae8565b90565b600160a060020a031690565b60006106a282610ada565b60006106a282610af456fe608060405234801561001057600080fd5b506040516060806108f3833981018060405261002f9190810190610098565b6000805460ff1916905560015560028054600160a060020a0319908116600160a060020a039485161790915560038054909116919092161760a060020a61ffff0219169055610105565b600061008582516100f1565b9392505050565b60006100858251610102565b6000806000606084860312156100ad57600080fd5b60006100b98686610079565b93505060206100ca86828701610079565b92505060406100db8682870161008c565b9150509250925092565b600160a060020a031690565b60006100fc826100e5565b92915050565b90565b6107df806101146000396000f3fe6080604052600436106100d95763ffffffff7c0100000000000000000000000000000000000000000000000000000000600035041662f7063881146100db5780630f57877b1461010657806319deeb2614610128578063200d2ed21461014a5780636625fe0f1461015f57806378cd3c731461018c57806388d1313e146101ae5780639b4afffa146101ce578063a35a4593146101e3578063bb5d40eb146101f8578063dba7c1b21461020d578063e66a6b221461022d578063feac51f514610242578063ff30c18514610257578063ff4c4d541461026c575b005b3480156100e757600080fd5b506100f0610281565b6040516100fd919061074c565b60405180910390f35b34801561011257600080fd5b5061011b6102c4565b6040516100fd919061073e565b34801561013457600080fd5b5061013d6102d3565b6040516100fd9190610730565b34801561015657600080fd5b506100f06102d9565b34801561016b57600080fd5b5061017f61017a366004610654565b6102e2565b6040516100fd919061070e565b34801561019857600080fd5b506101a1610375565b6040516100fd9190610722565b3480156101ba57600080fd5b506100f06101c93660046106b5565b610396565b3480156101da57600080fd5b506101a16103f0565b3480156101ef57600080fd5b5061017f610412565b34801561020457600080fd5b506101a1610421565b34801561021957600080fd5b5061017f610228366004610654565b61043c565b34801561023957600080fd5b506101a16104c9565b34801561024e57600080fd5b506100d9610516565b34801561026357600080fd5b5061017f61056a565b34801561027857600080fd5b506100f0610579565b60008060005460ff16600381111561029557fe5b1461029f57600080fd5b6102a76104c9565b156102ba576000805460ff191660011790555b5060005460ff1690565b600454600160a060020a031681565b60015481565b60005460ff1681565b60035460009074010000000000000000000000000000000000000000900460ff161561030d57600080fd5b60025461032690600160a060020a0316868686866105a3565b60038054911515740100000000000000000000000000000000000000000274ff00000000000000000000000000000000000000001990921691909117905561036c610281565b50949350505050565b60035474010000000000000000000000000000000000000000900460ff1690565b600354600090600160a060020a031633146103b057600080fd5b6000805460ff1916600217905560048054600160a060020a039390931673ffffffffffffffffffffffffffffffffffffffff199093169290921790915590565b6003547501000000000000000000000000000000000000000000900460ff1690565b600354600160a060020a031681565b6000600160005460ff16600381111561043657fe5b14905090565b6003546000907501000000000000000000000000000000000000000000900460ff161561046857600080fd5b60035461048190600160a060020a0316868686866105a3565b6003805491151575010000000000000000000000000000000000000000000275ff0000000000000000000000000000000000000000001990921691909117905561036c610281565b60035460009074010000000000000000000000000000000000000000900460ff16801561051157506003547501000000000000000000000000000000000000000000900460ff165b905090565b600354600160a060020a0316331461052d57600080fd5b600354604051600160a060020a0390911690303180156108fc02916000818181858888f19350505050158015610567573d6000803e3d6000fd5b50565b600254600160a060020a031681565b600354600090600160a060020a0316331461059357600080fd5b6000805460ff1916600317905590565b60008060018686868660405160008152602001604052604051808581526020018460ff1660ff1681526020018381526020018281526020019450505050506020604051602081039080840390855afa158015610603573d6000803e3d6000fd5b5050604051601f190151600160a060020a03908116908916149250505095945050505050565b6000610635823561076a565b9392505050565b60006106358235610789565b60006106358235610794565b6000806000806080858703121561066a57600080fd5b60006106768787610629565b945050602061068787828801610648565b935050604061069887828801610629565b92505060606106a987828801610629565b91505092959194509250565b6000602082840312156106c757600080fd5b60006106d3848461063c565b949350505050565b6106e48161075a565b82525050565b6106e481610765565b6106e48161076a565b6106e481610789565b6106e48161079a565b6020810161071c82846106db565b92915050565b6020810161071c82846106ea565b6020810161071c82846106f3565b6020810161071c82846106fc565b6020810161071c8284610705565b600061071c8261077d565b151590565b90565b60006004821061077957fe5b5090565b600160a060020a031690565b600061071c8261075a565b60ff1690565b600061071c8261076d56fea265627a7a72305820165cb50b090e5d59a80be162b465ca3bfc94eba5c82e1c5d42598ffb0e459e1e6c6578706572696d656e74616cf50037a265627a7a72305820ad12ca91ae6f16e3c4b511e25e1f3e11162ba63dc8f6025cd5e8fdd8b4b6da336c6578706572696d656e74616cf50037",
  "source": "// TEX 05.06.2019\npragma solidity ^0.5.0;\npragma experimental ABIEncoderV2;\n\ncontract ConsentManager {\n    event SignaturesRequired(Consent consent, address dataUser, address dataSubject);\n    event ConsentUpdated(Consent consent, Consent withConsent); \n    \n    /////////////////////////////////////////////////////////////////\n    // these could be omited \n    /*address[] dataSubjects;\n    address[] dataUsers;\n    mapping(address => uint256) internal existingDataSubject;\n    mapping(address => uint256) internal existingDataUsers; */\n    /////////////////////////////////////////////////////////////////\n    \n    mapping(address => Consent[]) internal userConsents; \n    mapping(address => Consent[]) internal subjectConsents;\n    mapping(bytes32 => Consent[]) internal consentsOnSwarm; \n    \n    \n    function createConsent(address payable dataUser, address payable dataSubject, bytes32 swarmLocation) public returns (Consent) {\n        Consent consent = new Consent(dataUser, dataSubject, swarmLocation);\n        \n        addConsent(consent);\n        \n        consentsOnSwarm[swarmLocation].push(consent);\n        \n        emit SignaturesRequired(consent, dataUser, dataSubject);\n        return consent;\n    }\n    \n    function updateConsent(Consent consent, bytes32 swarmLocation) public returns (Consent) {\n        if(msg.sender!=address(consent.dataSubject) || msg.sender!=address(consent.dataUser)) \n           return Consent(0x0);\n        \n        Consent newConsent = new Consent(consent.dataUser(), consent.dataSubject(), swarmLocation);\n        \n        //consent.updateConsent(newConsent);\n        address(consent).call(abi.encodePacked(\"updateConsent(Consent)\", consent));\n        \n        consentsOnSwarm[swarmLocation].push(consent);\n        \n        emit ConsentUpdated(consent, newConsent);\n        emit SignaturesRequired(newConsent, consent.dataUser(), consent.dataSubject());\n        return newConsent;\n    }\n    \n    // others can add KeyValueTrees (but need to set access rights by themselfs)\n    function addConsent(Consent consent) private returns (Consent) {\n\n        userConsents[consent.dataUser()].push(consent);\n        subjectConsents[consent.dataSubject()].push(consent);\n        \n        return consent;\n    }\n    \n    function getUserConsents() public view returns (Consent[] memory) {\n        return userConsents[msg.sender];\n    }\n    function getSubjectConsents() public view returns (Consent[] memory) {\n        return subjectConsents[msg.sender];\n    }\n    function getConsentsFor(bytes32 swarmHash) public view returns (Consent[] memory) {\n        return consentsOnSwarm[swarmHash];\n    }\n}\n\ncontract Consent {\n\n    event LogA(address A, address B);\n\n    function () external payable {    }\n    function removeFunds()  public { \n        require(msg.sender == dataSubject);\n        dataSubject.transfer(address(this).balance); \n    }\n\n    constructor(address payable dataUserAddress, address payable dataSubjectAddress, bytes32 swarmLocation) public {\n        status = ConsentStatus.AWAITINGSIGNATURE; \n        swarmHash = swarmLocation;\n        \n        dataUser = dataUserAddress;\n        dataSubject = dataSubjectAddress;\n        userSigned = false;\n        subjectSigned = false;\n        //validUntil = block.number + (365 * 24 * 60 * 60); // one year until valid\n    }\n    \n    enum ConsentStatus {AWAITINGSIGNATURE,ACTIVE,EXPIRED,REVOKED}\n    ConsentStatus public status;\n    \n    bytes32 public swarmHash;\n    address payable public dataUser;\n    address payable public dataSubject;\n    //uint256 public validUntil;\n    \n    bool private userSigned;\n    bool private subjectSigned;\n    \n    Consent public updatedConsent;\n\n    function revokeConsent() public returns (ConsentStatus) {\n        require(msg.sender==dataSubject);\n        status = ConsentStatus.REVOKED;  \n    }\n    \n    function updateConsent(Consent consent) public returns (ConsentStatus) {\n        require(msg.sender==dataSubject);\n        status = ConsentStatus.EXPIRED;  \n        updatedConsent = consent;\n    }\n    \n    function isValid() public view returns (bool) {\n        /*if(block.number>validUntil)\n        {\n           status = ConsentStatus.EXPIRED;  \n           return false;\n        }*/\n           \n        return status==ConsentStatus.ACTIVE;\n    }\n\n    function isSigned() public view returns (bool) { return userSigned && subjectSigned; }\n    function isUserSigned() public view returns (bool) { return userSigned;  }\n    function isSubjectSigned() public view returns (bool) { return subjectSigned;  }\n    \n    // transition to ACTIVE only when both parties signed this consent\n    function transitionToActive() public returns (ConsentStatus) { \n        require(status == ConsentStatus.AWAITINGSIGNATURE);\n        if(isSigned()) \n           status = ConsentStatus.ACTIVE;\n           \n        return status;\n    }\n\n    function signUser(bytes32 h, uint8 v, bytes32 r, bytes32 s) public returns (address) {\n        require(userSigned==false);\n        userSigned = signForRaw(dataUser, h,v,r,s);\n        transitionToActive();\n    }\n    function signSubject(bytes32 h, uint8 v, bytes32 r, bytes32 s) public returns (address) {\n        require(subjectSigned==false);\n        subjectSigned = signForRaw(dataSubject, h,v,r,s);\n        transitionToActive();\n    }\n    \n    // function signFor(address payable forParty, bytes32 h, uint8 v, bytes32 r, bytes32 s) private pure returns (bool) {\n    //     bytes memory prefix = \"\\x19Ethereum Signed Message:\\n32\";\n\n    //     bytes32 dataHash = keccak256(abi.encodePacked(prefix, h));\n    //     address addr = ecrecover(dataHash, v, r, s);\n        \n    //     return (addr == forParty);\n    // }\n\n    function signForRaw(address payable forParty, bytes32 h, uint8 v, bytes32 r, bytes32 s) private returns (bool) {\n        address addr = ecrecover(h, v, r, s);\n        return (addr == forParty);\n    }\n}",
  "sourcePath": "/Users/significance/Code/df/multibox2/contracts/ConsentManager.sol",
  "compiler": {
    "name": "solc",
    "version": "0.5.0+commit.1d4f565a.Emscripten.clang"
  },
  "schemaVersion": "3.0.0",
  "updatedAt": "2019-06-19T16:07:50.650Z",
  "devdoc": {
    "methods": {}
  },
  "userdoc": {
    "methods": {}
  }
}