{
  "contractName": "Consent",
  "abi": [
    {
      "constant": true,
      "inputs": [],
      "name": "updatedConsent",
      "outputs": [
        {
          "name": "",
          "type": "address"
        }
      ],
      "payable": false,
      "stateMutability": "view",
      "type": "function"
    },
    {
      "constant": true,
      "inputs": [],
      "name": "consentMan",
      "outputs": [
        {
          "name": "",
          "type": "address"
        }
      ],
      "payable": false,
      "stateMutability": "view",
      "type": "function"
    },
    {
      "constant": true,
      "inputs": [],
      "name": "swarmHash",
      "outputs": [
        {
          "name": "",
          "type": "bytes32"
        }
      ],
      "payable": false,
      "stateMutability": "view",
      "type": "function"
    },
    {
      "constant": true,
      "inputs": [],
      "name": "status",
      "outputs": [
        {
          "name": "",
          "type": "uint8"
        }
      ],
      "payable": false,
      "stateMutability": "view",
      "type": "function"
    },
    {
      "constant": true,
      "inputs": [],
      "name": "dataSubject",
      "outputs": [
        {
          "name": "",
          "type": "address"
        }
      ],
      "payable": false,
      "stateMutability": "view",
      "type": "function"
    },
    {
      "constant": true,
      "inputs": [],
      "name": "dataUser",
      "outputs": [
        {
          "name": "",
          "type": "address"
        }
      ],
      "payable": false,
      "stateMutability": "view",
      "type": "function"
    },
    {
      "inputs": [
        {
          "name": "consentManager",
          "type": "address"
        },
        {
          "name": "dataUserAddress",
          "type": "address"
        },
        {
          "name": "dataSubjectAddress",
          "type": "address"
        },
        {
          "name": "swarmLocation",
          "type": "bytes32"
        }
      ],
      "payable": false,
      "stateMutability": "nonpayable",
      "type": "constructor"
    },
    {
      "payable": true,
      "stateMutability": "payable",
      "type": "fallback"
    },
    {
      "anonymous": false,
      "inputs": [
        {
          "indexed": false,
          "name": "sender",
          "type": "address"
        },
        {
          "indexed": false,
          "name": "dataSubject",
          "type": "address"
        },
        {
          "indexed": false,
          "name": "consent",
          "type": "address"
        },
        {
          "indexed": false,
          "name": "origin",
          "type": "address"
        }
      ],
      "name": "UpdatingConsent",
      "type": "event"
    },
    {
      "constant": false,
      "inputs": [],
      "name": "removeFunds",
      "outputs": [],
      "payable": false,
      "stateMutability": "nonpayable",
      "type": "function"
    },
    {
      "constant": false,
      "inputs": [],
      "name": "revokeConsent",
      "outputs": [
        {
          "name": "",
          "type": "uint8"
        }
      ],
      "payable": false,
      "stateMutability": "nonpayable",
      "type": "function"
    },
    {
      "constant": false,
      "inputs": [
        {
          "name": "consent",
          "type": "address"
        }
      ],
      "name": "updateConsent",
      "outputs": [
        {
          "name": "",
          "type": "uint8"
        }
      ],
      "payable": false,
      "stateMutability": "nonpayable",
      "type": "function"
    },
    {
      "constant": true,
      "inputs": [],
      "name": "isValid",
      "outputs": [
        {
          "name": "",
          "type": "bool"
        }
      ],
      "payable": false,
      "stateMutability": "view",
      "type": "function"
    },
    {
      "constant": true,
      "inputs": [],
      "name": "isSigned",
      "outputs": [
        {
          "name": "",
          "type": "bool"
        }
      ],
      "payable": false,
      "stateMutability": "view",
      "type": "function"
    },
    {
      "constant": true,
      "inputs": [],
      "name": "isUserSigned",
      "outputs": [
        {
          "name": "",
          "type": "bool"
        }
      ],
      "payable": false,
      "stateMutability": "view",
      "type": "function"
    },
    {
      "constant": true,
      "inputs": [],
      "name": "isSubjectSigned",
      "outputs": [
        {
          "name": "",
          "type": "bool"
        }
      ],
      "payable": false,
      "stateMutability": "view",
      "type": "function"
    },
    {
      "constant": false,
      "inputs": [],
      "name": "transitionToActive",
      "outputs": [
        {
          "name": "",
          "type": "uint8"
        }
      ],
      "payable": false,
      "stateMutability": "nonpayable",
      "type": "function"
    },
    {
      "constant": false,
      "inputs": [
        {
          "name": "h",
          "type": "bytes32"
        },
        {
          "name": "v",
          "type": "uint8"
        },
        {
          "name": "r",
          "type": "bytes32"
        },
        {
          "name": "s",
          "type": "bytes32"
        }
      ],
      "name": "signUser",
      "outputs": [
        {
          "name": "",
          "type": "address"
        }
      ],
      "payable": false,
      "stateMutability": "nonpayable",
      "type": "function"
    },
    {
      "constant": false,
      "inputs": [
        {
          "name": "h",
          "type": "bytes32"
        },
        {
          "name": "v",
          "type": "uint8"
        },
        {
          "name": "r",
          "type": "bytes32"
        },
        {
          "name": "s",
          "type": "bytes32"
        }
      ],
      "name": "signSubject",
      "outputs": [
        {
          "name": "",
          "type": "address"
        }
      ],
      "payable": false,
      "stateMutability": "nonpayable",
      "type": "function"
    }
  ],
  "bytecode": "0x608060405234801561001057600080fd5b5060405160808061080f8339810180604052608081101561003057600080fd5b508051602082015160408301516060909301516000805461010060a860020a031916610100600160a060020a038616021780825593949293819060ff1916600182021790555060015560028054600160a060020a0319908116600160a060020a039485161790915560038054909116919092161760a060020a61ffff02191690555061074e806100c16000396000f3fe6080604052600436106100e45763ffffffff7c0100000000000000000000000000000000000000000000000000000000600035041662f7063881146100e65780630f57877b1461011f5780631028b4c71461015057806319deeb2614610165578063200d2ed21461018c5780636625fe0f146101a157806378cd3c73146101e057806388d1313e146102095780639b4afffa1461023c578063a35a459314610251578063bb5d40eb14610266578063dba7c1b21461027b578063e66a6b22146102ba578063feac51f5146102cf578063ff30c185146102e4578063ff4c4d54146102f9575b005b3480156100f257600080fd5b506100fb61030e565b6040518082600381111561010b57fe5b60ff16815260200191505060405180910390f35b34801561012b57600080fd5b50610134610351565b60408051600160a060020a039092168252519081900360200190f35b34801561015c57600080fd5b50610134610360565b34801561017157600080fd5b5061017a610374565b60408051918252519081900360200190f35b34801561019857600080fd5b506100fb61037a565b3480156101ad57600080fd5b50610134600480360360808110156101c457600080fd5b5080359060ff6020820135169060408101359060600135610383565b3480156101ec57600080fd5b506101f5610416565b604080519115158252519081900360200190f35b34801561021557600080fd5b506100fb6004803603602081101561022c57600080fd5b5035600160a060020a0316610437565b34801561024857600080fd5b506101f56104e9565b34801561025d57600080fd5b5061013461050b565b34801561027257600080fd5b506101f561051a565b34801561028757600080fd5b506101346004803603608081101561029e57600080fd5b5080359060ff6020820135169060408101359060600135610535565b3480156102c657600080fd5b506101f56105c2565b3480156102db57600080fd5b506100e461060f565b3480156102f057600080fd5b50610134610663565b34801561030557600080fd5b506100fb610672565b60008060005460ff16600381111561032257fe5b1461032c57600080fd5b6103346105c2565b15610347576000805460ff191660011790555b5060005460ff1690565b600454600160a060020a031681565b6000546101009004600160a060020a031681565b60015481565b60005460ff1681565b60035460009074010000000000000000000000000000000000000000900460ff16156103ae57600080fd5b6002546103c790600160a060020a03168686868661069c565b60038054911515740100000000000000000000000000000000000000000274ff00000000000000000000000000000000000000001990921691909117905561040d61030e565b50949350505050565b60035474010000000000000000000000000000000000000000900460ff1690565b60035460408051338152600160a060020a03928316602082015291831682820152326060830152516000917ff19694af28fef357e4c01339a9a48200f42e1f70a73d16a8519ecc704d5ad405919081900360800190a16000546101009004600160a060020a031633146104a957600080fd5b6000805460ff1916600217905560048054600160a060020a039390931673ffffffffffffffffffffffffffffffffffffffff199093169290921790915590565b6003547501000000000000000000000000000000000000000000900460ff1690565b600354600160a060020a031681565b6000600160005460ff16600381111561052f57fe5b14905090565b6003546000907501000000000000000000000000000000000000000000900460ff161561056157600080fd5b60035461057a90600160a060020a03168686868661069c565b6003805491151575010000000000000000000000000000000000000000000275ff0000000000000000000000000000000000000000001990921691909117905561040d61030e565b60035460009074010000000000000000000000000000000000000000900460ff16801561060a57506003547501000000000000000000000000000000000000000000900460ff165b905090565b600354600160a060020a0316331461062657600080fd5b600354604051600160a060020a0390911690303180156108fc02916000818181858888f19350505050158015610660573d6000803e3d6000fd5b50565b600254600160a060020a031681565b600354600090600160a060020a0316331461068c57600080fd5b6000805460ff1916600317905590565b60008060018686868660405160008152602001604052604051808581526020018460ff1660ff1681526020018381526020018281526020019450505050506020604051602081039080840390855afa1580156106fc573d6000803e3d6000fd5b5050604051601f190151600160a060020a0390811690891614925050509594505050505056fea165627a7a72305820327172ecd140be6aa2b303ca735a67ea4adbbe9eca1a1cb1b31be98ad6a9eff30029",
  "source": "// TEX 05.06.2019\r\npragma solidity ^0.5.0;\r\n//pragma experimental ABIEncoderV2;\r\n\r\ncontract ConsentManager {\r\n    event SignaturesRequired(Consent consent, address dataUser, address dataSubject);\r\n    event ConsentUpdated(Consent consent, Consent withConsent);\r\n    event ConsentUpdate(address sender, address payable dataSubject, address payable dataUser); \r\n    \r\n    /////////////////////////////////////////////////////////////////\r\n    // these could be omited \r\n    /*address[] dataSubjects;\r\n    address[] dataUsers;\r\n    mapping(address => uint256) internal existingDataSubject;\r\n    mapping(address => uint256) internal existingDataUsers; */\r\n    /////////////////////////////////////////////////////////////////\r\n    \r\n    mapping(address => Consent[]) internal userConsents; \r\n    mapping(address => Consent[]) internal subjectConsents;\r\n    mapping(bytes32 => Consent[]) internal consentsOnSwarm; \r\n    \r\n    \r\n    function createConsent(address payable dataUser, address payable dataSubject, bytes32 swarmLocation) public returns (Consent) {\r\n        Consent consent = new Consent(address(this), dataUser, dataSubject, swarmLocation);\r\n        \r\n        addConsent(consent);\r\n        \r\n        consentsOnSwarm[swarmLocation].push(consent);\r\n        \r\n        emit SignaturesRequired(consent, dataUser, dataSubject);\r\n        return consent;\r\n    }\r\n    \r\n    function updateConsent(Consent consent, bytes32 swarmLocation) payable public returns (Consent) {\r\n        emit ConsentUpdate(msg.sender, consent.dataSubject(), consent.dataUser());\r\n        require(msg.sender==address(consent.dataSubject()) || msg.sender==address(consent.dataUser()));\r\n\r\n        Consent newConsent = new Consent(address(this), consent.dataUser(), consent.dataSubject(), swarmLocation);\r\n        \r\n        consent.updateConsent(newConsent);\r\n        //address(consent).call(abi.encodeWithSignature(\"updateConsent(Consent)\", address(consent)));\r\n        consentsOnSwarm[swarmLocation].push(consent);\r\n        \r\n        emit ConsentUpdated(consent, newConsent);\r\n        emit SignaturesRequired(newConsent, consent.dataUser(), consent.dataSubject());\r\n        return newConsent;\r\n    }\r\n    \r\n    // others can add KeyValueTrees (but need to set access rights by themselfs)\r\n    function addConsent(Consent consent) private returns (Consent) {\r\n\r\n        userConsents[consent.dataUser()].push(consent);\r\n        subjectConsents[consent.dataSubject()].push(consent);\r\n        \r\n        return consent;\r\n    }\r\n    \r\n    function getUserConsents() public view returns (Consent[] memory) {\r\n        return userConsents[msg.sender];\r\n    }\r\n    function getSubjectConsents() public view returns (Consent[] memory) {\r\n        return subjectConsents[msg.sender];\r\n    }\r\n    function getConsentsFor(bytes32 swarmHash) public view returns (Consent[] memory) {\r\n        return consentsOnSwarm[swarmHash];\r\n    }\r\n}\r\n\r\ncontract Consent {\r\n\r\n    //event LogA(address A, address B);\r\n    event UpdatingConsent(address sender, address payable dataSubject, Consent consent, address origin); \r\n\r\n    function () external payable {    }\r\n    function removeFunds()  public { \r\n        require(msg.sender == dataSubject);\r\n        dataSubject.transfer(address(this).balance); \r\n    }\r\n\r\n    constructor(address consentManager, address payable dataUserAddress, address payable dataSubjectAddress, bytes32 swarmLocation) public {\r\n        consentMan = consentManager;\r\n        status = ConsentStatus.AWAITINGSIGNATURE; \r\n        swarmHash = swarmLocation;\r\n        \r\n        dataUser = dataUserAddress;\r\n        dataSubject = dataSubjectAddress;\r\n        userSigned = false;\r\n        subjectSigned = false;\r\n        //validUntil = block.number + (365 * 24 * 60 * 60); // one year until valid\r\n    }\r\n    \r\n    enum ConsentStatus {AWAITINGSIGNATURE,ACTIVE,EXPIRED,REVOKED}\r\n    ConsentStatus public status;\r\n    address public consentMan;\r\n    \r\n    bytes32 public swarmHash;\r\n    address payable public dataUser;\r\n    address payable public dataSubject;\r\n    //uint256 public validUntil;\r\n    \r\n    bool private userSigned;\r\n    bool private subjectSigned;\r\n    \r\n    Consent public updatedConsent;\r\n\r\n    function revokeConsent() public returns (ConsentStatus) {\r\n        require(msg.sender==dataSubject);\r\n        status = ConsentStatus.REVOKED;  \r\n    }\r\n    \r\n    function updateConsent(Consent consent) public returns (ConsentStatus) {\r\n        emit UpdatingConsent(msg.sender, dataSubject, consent, tx.origin);\r\n        require(msg.sender==consentMan);\r\n        //require(msg.sender==dataSubject);\r\n        status = ConsentStatus.EXPIRED;  \r\n        updatedConsent = consent;\r\n    }\r\n    \r\n    function isValid() public view returns (bool) {\r\n        /*if(block.number>validUntil)\r\n        {\r\n           status = ConsentStatus.EXPIRED;  \r\n           return false;\r\n        }*/\r\n           \r\n        return status==ConsentStatus.ACTIVE;\r\n    }\r\n\r\n    function isSigned() public view returns (bool) { return userSigned && subjectSigned; }\r\n    function isUserSigned() public view returns (bool) { return userSigned;  }\r\n    function isSubjectSigned() public view returns (bool) { return subjectSigned;  }\r\n    \r\n    // transition to ACTIVE only when both parties signed this consent\r\n    function transitionToActive() public returns (ConsentStatus) { \r\n        require(status == ConsentStatus.AWAITINGSIGNATURE);\r\n        if(isSigned()) \r\n           status = ConsentStatus.ACTIVE;\r\n           \r\n        return status;\r\n    }\r\n\r\n    function signUser(bytes32 h, uint8 v, bytes32 r, bytes32 s) public returns (address) {\r\n        require(userSigned==false);\r\n        userSigned = signForRaw(dataUser, h,v,r,s);\r\n        transitionToActive();\r\n    }\r\n    function signSubject(bytes32 h, uint8 v, bytes32 r, bytes32 s) public returns (address) {\r\n        require(subjectSigned==false);\r\n        subjectSigned = signForRaw(dataSubject, h,v,r,s);\r\n        transitionToActive();\r\n    }\r\n    \r\n    // function signFor(address payable forParty, bytes32 h, uint8 v, bytes32 r, bytes32 s) private pure returns (bool) {\r\n    //     bytes memory prefix = \"\\x19Ethereum Signed Message:\\n32\";\r\n\r\n    //     bytes32 dataHash = keccak256(abi.encodePacked(prefix, h));\r\n    //     address addr = ecrecover(dataHash, v, r, s);\r\n        \r\n    //     return (addr == forParty);\r\n    // }\r\n\r\n    function signForRaw(address payable forParty, bytes32 h, uint8 v, bytes32 r, bytes32 s) private pure returns (bool) {\r\n        address addr = ecrecover(h, v, r, s);\r\n        return (addr == forParty);\r\n    }\r\n}",
  "sourcePath": "C:/Users/tex/source/repos/FairDataSociety/multibox/contracts/ConsentManager.sol",
  "compiler": {
    "name": "solc",
    "version": "0.5.0+commit.1d4f565a.Emscripten.clang"
  },
  "schemaVersion": "3.0.6",
  "updatedAt": "2019-07-01T19:07:09.858Z",
  "devdoc": {
    "methods": {}
  },
  "userdoc": {
    "methods": {}
  }
}